{
  "address": "0x88176026Cca28f98212Cef925E980240C6C8D7b1",
  "abi": [
    {
      "inputs": [
        {
          "internalType": "address",
          "name": "_dapiServer",
          "type": "address"
        },
        {
          "internalType": "address",
          "name": "_dappTokenAddress",
          "type": "address"
        }
      ],
      "stateMutability": "nonpayable",
      "type": "constructor"
    },
    {
      "anonymous": false,
      "inputs": [
        {
          "indexed": true,
          "internalType": "address",
          "name": "previousOwner",
          "type": "address"
        },
        {
          "indexed": true,
          "internalType": "address",
          "name": "newOwner",
          "type": "address"
        }
      ],
      "name": "OwnershipTransferred",
      "type": "event"
    },
    {
      "inputs": [
        {
          "internalType": "address",
          "name": "token",
          "type": "address"
        }
      ],
      "name": "addAllowedTokens",
      "outputs": [],
      "stateMutability": "nonpayable",
      "type": "function"
    },
    {
      "inputs": [],
      "name": "dapiServer",
      "outputs": [
        {
          "internalType": "address",
          "name": "",
          "type": "address"
        }
      ],
      "stateMutability": "view",
      "type": "function"
    },
    {
      "inputs": [],
      "name": "dappToken",
      "outputs": [
        {
          "internalType": "contract IERC20",
          "name": "",
          "type": "address"
        }
      ],
      "stateMutability": "view",
      "type": "function"
    },
    {
      "inputs": [
        {
          "internalType": "address",
          "name": "token",
          "type": "address"
        }
      ],
      "name": "getTokenEthPrice",
      "outputs": [
        {
          "internalType": "int224",
          "name": "value",
          "type": "int224"
        }
      ],
      "stateMutability": "view",
      "type": "function"
    },
    {
      "inputs": [
        {
          "internalType": "address",
          "name": "user",
          "type": "address"
        },
        {
          "internalType": "address",
          "name": "token",
          "type": "address"
        }
      ],
      "name": "getUserStakingBalanceEthValue",
      "outputs": [
        {
          "internalType": "uint256",
          "name": "",
          "type": "uint256"
        }
      ],
      "stateMutability": "view",
      "type": "function"
    },
    {
      "inputs": [
        {
          "internalType": "address",
          "name": "user",
          "type": "address"
        }
      ],
      "name": "getUserTotalValue",
      "outputs": [
        {
          "internalType": "uint256",
          "name": "",
          "type": "uint256"
        }
      ],
      "stateMutability": "view",
      "type": "function"
    },
    {
      "inputs": [
        {
          "internalType": "address",
          "name": "token",
          "type": "address"
        }
      ],
      "name": "int224ToUint256",
      "outputs": [
        {
          "internalType": "uint256",
          "name": "",
          "type": "uint256"
        }
      ],
      "stateMutability": "view",
      "type": "function"
    },
    {
      "inputs": [],
      "name": "issueTokens",
      "outputs": [],
      "stateMutability": "nonpayable",
      "type": "function"
    },
    {
      "inputs": [],
      "name": "name",
      "outputs": [
        {
          "internalType": "string",
          "name": "",
          "type": "string"
        }
      ],
      "stateMutability": "view",
      "type": "function"
    },
    {
      "inputs": [],
      "name": "owner",
      "outputs": [
        {
          "internalType": "address",
          "name": "",
          "type": "address"
        }
      ],
      "stateMutability": "view",
      "type": "function"
    },
    {
      "inputs": [],
      "name": "renounceOwnership",
      "outputs": [],
      "stateMutability": "nonpayable",
      "type": "function"
    },
    {
      "inputs": [
        {
          "internalType": "address",
          "name": "token",
          "type": "address"
        },
        {
          "internalType": "bytes32",
          "name": "DapiName",
          "type": "bytes32"
        }
      ],
      "name": "setDapiName",
      "outputs": [],
      "stateMutability": "nonpayable",
      "type": "function"
    },
    {
      "inputs": [
        {
          "internalType": "uint256",
          "name": "_amount",
          "type": "uint256"
        },
        {
          "internalType": "address",
          "name": "token",
          "type": "address"
        }
      ],
      "name": "stakeTokens",
      "outputs": [],
      "stateMutability": "nonpayable",
      "type": "function"
    },
    {
      "inputs": [
        {
          "internalType": "uint256",
          "name": "",
          "type": "uint256"
        }
      ],
      "name": "stakers",
      "outputs": [
        {
          "internalType": "address",
          "name": "",
          "type": "address"
        }
      ],
      "stateMutability": "view",
      "type": "function"
    },
    {
      "inputs": [
        {
          "internalType": "address",
          "name": "",
          "type": "address"
        },
        {
          "internalType": "address",
          "name": "",
          "type": "address"
        }
      ],
      "name": "stakingBalance",
      "outputs": [
        {
          "internalType": "uint256",
          "name": "",
          "type": "uint256"
        }
      ],
      "stateMutability": "view",
      "type": "function"
    },
    {
      "inputs": [
        {
          "internalType": "address",
          "name": "",
          "type": "address"
        }
      ],
      "name": "tokenDapiMapping",
      "outputs": [
        {
          "internalType": "bytes32",
          "name": "",
          "type": "bytes32"
        }
      ],
      "stateMutability": "view",
      "type": "function"
    },
    {
      "inputs": [
        {
          "internalType": "address",
          "name": "token",
          "type": "address"
        }
      ],
      "name": "tokenIsAllowed",
      "outputs": [
        {
          "internalType": "bool",
          "name": "",
          "type": "bool"
        }
      ],
      "stateMutability": "nonpayable",
      "type": "function"
    },
    {
      "inputs": [
        {
          "internalType": "address",
          "name": "newOwner",
          "type": "address"
        }
      ],
      "name": "transferOwnership",
      "outputs": [],
      "stateMutability": "nonpayable",
      "type": "function"
    },
    {
      "inputs": [
        {
          "internalType": "address",
          "name": "",
          "type": "address"
        }
      ],
      "name": "uniqueTokensStaked",
      "outputs": [
        {
          "internalType": "uint256",
          "name": "",
          "type": "uint256"
        }
      ],
      "stateMutability": "view",
      "type": "function"
    },
    {
      "inputs": [
        {
          "internalType": "address",
          "name": "token",
          "type": "address"
        }
      ],
      "name": "unstakeTokens",
      "outputs": [],
      "stateMutability": "nonpayable",
      "type": "function"
    }
  ],
  "transactionHash": "0xae6488e3d5ffea26add5f551fadfbcd58a64b64e27cb924987c2fdc6a558fa4e",
  "args": [
    "0x71Da7A936fCaEd1Ee364Df106B12deF6D1Bf1f14",
    "0xF0623418925Af84B9f936f3b950053ABFa9d9dd1"
  ],
  "numDeployments": 1,
  "solcInputHash": "14cb3df5553d972d5fab9c526cc7a66f",
  "bytecode": "0x60c0604052600f60808190526e4461707020546f6b656e204661726d60881b60a090815262000032916002919062000171565b503480156200004057600080fd5b50604051620011a4380380620011a4833981016040819052620000639162000234565b816200006f81620000a2565b506200007b336200011f565b600380546001600160a01b0319166001600160a01b039290921691909117905550620002a9565b6001600160a01b038116620000fd5760405162461bcd60e51b815260206004820152601860248201527f64415049207365727665722061646472657373207a65726f0000000000000000604482015260640160405180910390fd5b600080546001600160a01b0319166001600160a01b0392909216919091179055565b600180546001600160a01b038381166001600160a01b0319831681179093556040519116919082907f8be0079c531659141344cd1fd0a4f28419497f9722a3daafe3b4186f6b6457e090600090a35050565b8280546200017f906200026c565b90600052602060002090601f016020900481019282620001a35760008555620001ee565b82601f10620001be57805160ff1916838001178555620001ee565b82800160010185558215620001ee579182015b82811115620001ee578251825591602001919060010190620001d1565b50620001fc92915062000200565b5090565b5b80821115620001fc576000815560010162000201565b80516001600160a01b03811681146200022f57600080fd5b919050565b600080604083850312156200024857600080fd5b620002538362000217565b9150620002636020840162000217565b90509250929050565b600181811c908216806200028157607f821691505b60208210811415620002a357634e487b7160e01b600052602260045260246000fd5b50919050565b610eeb80620002b96000396000f3fe608060405234801561001057600080fd5b506004361061012c5760003560e01c80639f03866b116100ad578063dd5b846711610071578063dd5b84671461029b578063df00018d146102be578063f2fde38b146102e4578063f5588385146102f7578063fd5e6dd11461030a57600080fd5b80639f03866b14610222578063af3f5e2214610235578063b83e023414610248578063cc81e06014610268578063d4a56d1e1461027b57600080fd5b80635eb186f8116100f45780635eb186f8146101c357806360ab5852146101ee5780636bf233d7146101f6578063715018a6146102095780638da5cb5b1461021157600080fd5b806306fdde03146101315780630bea440d1461014f578063171e44ea1461016457806329161a00146101775780632d1ad8b8146101b0575b600080fd5b61013961031d565b6040516101469190610c24565b60405180910390f35b61016261015d366004610c95565b6103ab565b005b610162610172366004610cc1565b61053f565b6101a2610185366004610cdc565b600560209081526000928352604080842090915290825290205481565b604051908152602001610146565b6101626101be366004610cc1565b6105bb565b6003546101d6906001600160a01b031681565b6040516001600160a01b039091168152602001610146565b6101626106fb565b610162610204366004610d06565b610809565b61016261084f565b6001546001600160a01b03166101d6565b6000546101d6906001600160a01b031681565b6101a2610243366004610cc1565b610885565b6101a2610256366004610cc1565b60066020526000908152604090205481565b6101a2610276366004610cdc565b610909565b6101a2610289366004610cc1565b60076020526000908152604090205481565b6102ae6102a9366004610cc1565b610988565b6040519015158152602001610146565b6102d16102cc366004610cc1565b6109f2565b604051601b9190910b8152602001610146565b6101626102f2366004610cc1565b610a89565b6101a2610305366004610cc1565b610b21565b6101d6610318366004610d30565b610b3d565b6002805461032a90610d49565b80601f016020809104026020016040519081016040528092919081815260200182805461035690610d49565b80156103a35780601f10610378576101008083540402835291602001916103a3565b820191906000526020600020905b81548152906001019060200180831161038657829003601f168201915b505050505081565b600082116103f55760405162461bcd60e51b81526020600482015260126024820152710616d6f756e742063616e6e6f7420626520360741b60448201526064015b60405180910390fd5b6103fe81610988565b1561053b5761040d3382610b67565b6040516323b872dd60e01b8152336004820152306024820152604481018390526001600160a01b038216906323b872dd90606401602060405180830381600087803b15801561045b57600080fd5b505af115801561046f573d6000803e3d6000fd5b505050506040513d601f19601f820116820180604052508101906104939190610d84565b506001600160a01b03811660009081526005602090815260408083203384529091529020546104c3908390610dbc565b6001600160a01b03821660009081526005602090815260408083203384528252808320939093556006905220546001141561053b57600480546001810182556000919091527f8a35acfbc15ff81a39ae7d344fd709f28e8600b4aa8c65c6b64bfe7fe36bd19b0180546001600160a01b031916331790555b5050565b6001546001600160a01b031633146105695760405162461bcd60e51b81526004016103ec90610dd4565b600880546001810182556000919091527ff3f7a9fe364faab93b216da50a3214154f22a0a2b415b23a84c8169e8b636ee30180546001600160a01b0319166001600160a01b0392909216919091179055565b6001600160a01b03811660009081526005602090815260408083203384529091529020548061062c5760405162461bcd60e51b815260206004820152601b60248201527f7374616b696e672062616c616e63652063616e6e6f742062652030000000000060448201526064016103ec565b60405163a9059cbb60e01b8152336004820152602481018290526001600160a01b0383169063a9059cbb90604401602060405180830381600087803b15801561067457600080fd5b505af1158015610688573d6000803e3d6000fd5b505050506040513d601f19601f820116820180604052508101906106ac9190610d84565b506001600160a01b0382166000908152600560209081526040808320338452825280832083905560069091529020546106e790600190610e09565b336000908152600660205260409020555050565b6001546001600160a01b031633146107255760405162461bcd60e51b81526004016103ec90610dd4565b60005b6004548110156108065760006004828154811061074757610747610e20565b6000918252602090912001546003546001600160a01b0391821692501663a9059cbb8261077381610885565b6040516001600160e01b031960e085901b1681526001600160a01b0390921660048301526024820152604401602060405180830381600087803b1580156107b957600080fd5b505af11580156107cd573d6000803e3d6000fd5b505050506040513d601f19601f820116820180604052508101906107f19190610d84565b505080806107fe90610e36565b915050610728565b50565b6001546001600160a01b031633146108335760405162461bcd60e51b81526004016103ec90610dd4565b6001600160a01b03909116600090815260076020526040902055565b6001546001600160a01b031633146108795760405162461bcd60e51b81526004016103ec90610dd4565b6108836000610bd2565b565b6001600160a01b0381166000908152600660205260408120548190156109035760005b600854811015610901576108e384600883815481106108c9576108c9610e20565b6000918252602090912001546001600160a01b0316610909565b6108ed9083610dbc565b9150806108f981610e36565b9150506108a8565b505b92915050565b6001600160a01b03821660009081526006602052604081205461092e57506000610903565b600061093983610b21565b6001600160a01b03808516600090815260056020908152604080832093891683529290522054909150670de0b6b3a76400006109758383610e51565b61097f9190610e70565b95945050505050565b6000805b6008548110156109e957826001600160a01b0316600882815481106109b3576109b3610e20565b6000918252602090912001546001600160a01b031614156109d75750600192915050565b806109e181610e36565b91505061098c565b50600092915050565b6001600160a01b03818116600090815260076020526040808220548254915163386493e560e11b815260048101829052929390929116906370c927ca9060240160206040518083038186803b158015610a4a57600080fd5b505afa158015610a5e573d6000803e3d6000fd5b505050506040513d601f19601f82011682018060405250810190610a829190610e92565b9392505050565b6001546001600160a01b03163314610ab35760405162461bcd60e51b81526004016103ec90610dd4565b6001600160a01b038116610b185760405162461bcd60e51b815260206004820152602660248201527f4f776e61626c653a206e6577206f776e657220697320746865207a65726f206160448201526564647265737360d01b60648201526084016103ec565b61080681610bd2565b600080610b2d836109f2565b6001600160e01b03169392505050565b60048181548110610b4d57600080fd5b6000918252602090912001546001600160a01b0316905081565b6001600160a01b0380821660009081526005602090815260408083209386168352929052205461053b576001600160a01b038216600090815260066020526040902054610bb5906001610dbc565b6001600160a01b0383166000908152600660205260409020555050565b600180546001600160a01b038381166001600160a01b0319831681179093556040519116919082907f8be0079c531659141344cd1fd0a4f28419497f9722a3daafe3b4186f6b6457e090600090a35050565b600060208083528351808285015260005b81811015610c5157858101830151858201604001528201610c35565b81811115610c63576000604083870101525b50601f01601f1916929092016040019392505050565b80356001600160a01b0381168114610c9057600080fd5b919050565b60008060408385031215610ca857600080fd5b82359150610cb860208401610c79565b90509250929050565b600060208284031215610cd357600080fd5b610a8282610c79565b60008060408385031215610cef57600080fd5b610cf883610c79565b9150610cb860208401610c79565b60008060408385031215610d1957600080fd5b610d2283610c79565b946020939093013593505050565b600060208284031215610d4257600080fd5b5035919050565b600181811c90821680610d5d57607f821691505b60208210811415610d7e57634e487b7160e01b600052602260045260246000fd5b50919050565b600060208284031215610d9657600080fd5b81518015158114610a8257600080fd5b634e487b7160e01b600052601160045260246000fd5b60008219821115610dcf57610dcf610da6565b500190565b6020808252818101527f4f776e61626c653a2063616c6c6572206973206e6f7420746865206f776e6572604082015260600190565b600082821015610e1b57610e1b610da6565b500390565b634e487b7160e01b600052603260045260246000fd5b6000600019821415610e4a57610e4a610da6565b5060010190565b6000816000190483118215151615610e6b57610e6b610da6565b500290565b600082610e8d57634e487b7160e01b600052601260045260246000fd5b500490565b600060208284031215610ea457600080fd5b815180601b0b8114610a8257600080fdfea2646970667358221220e5c29763c9c5f7caaf0ea6c7b6575a2b35686af6bf4e6bb9407cacb60760a8a764736f6c63430008090033",
  "devdoc": {
    "kind": "dev",
    "methods": {
      "owner()": {
        "details": "Returns the address of the current owner."
      },
      "renounceOwnership()": {
        "details": "Leaves the contract without owner. It will not be possible to call `onlyOwner` functions anymore. Can only be called by the current owner. NOTE: Renouncing ownership will leave the contract without an owner, thereby removing any functionality that is only available to the owner."
      },
      "transferOwnership(address)": {
        "details": "Transfers ownership of the contract to a new account (`newOwner`). Can only be called by the current owner."
      }
    },
    "version": 1
  },
  "userdoc": {
    "kind": "user",
    "methods": {
      "dapiServer()": {
        "notice": "DapiServer contract address"
      }
    },
    "version": 1
  },
  "storageLayout": {
    "storage": [
      {
        "astId": 9,
        "contract": "contracts/Staking.sol:TokenFarm",
        "label": "dapiServer",
        "offset": 0,
        "slot": "0",
        "type": "t_address"
      },
      {
        "astId": 479,
        "contract": "contracts/Staking.sol:TokenFarm",
        "label": "_owner",
        "offset": 0,
        "slot": "1",
        "type": "t_address"
      },
      {
        "astId": 2051,
        "contract": "contracts/Staking.sol:TokenFarm",
        "label": "name",
        "offset": 0,
        "slot": "2",
        "type": "t_string_storage"
      },
      {
        "astId": 2054,
        "contract": "contracts/Staking.sol:TokenFarm",
        "label": "dappToken",
        "offset": 0,
        "slot": "3",
        "type": "t_contract(IERC20)1200"
      },
      {
        "astId": 2057,
        "contract": "contracts/Staking.sol:TokenFarm",
        "label": "stakers",
        "offset": 0,
        "slot": "4",
        "type": "t_array(t_address)dyn_storage"
      },
      {
        "astId": 2063,
        "contract": "contracts/Staking.sol:TokenFarm",
        "label": "stakingBalance",
        "offset": 0,
        "slot": "5",
        "type": "t_mapping(t_address,t_mapping(t_address,t_uint256))"
      },
      {
        "astId": 2067,
        "contract": "contracts/Staking.sol:TokenFarm",
        "label": "uniqueTokensStaked",
        "offset": 0,
        "slot": "6",
        "type": "t_mapping(t_address,t_uint256)"
      },
      {
        "astId": 2071,
        "contract": "contracts/Staking.sol:TokenFarm",
        "label": "tokenDapiMapping",
        "offset": 0,
        "slot": "7",
        "type": "t_mapping(t_address,t_bytes32)"
      },
      {
        "astId": 2074,
        "contract": "contracts/Staking.sol:TokenFarm",
        "label": "allowedTokens",
        "offset": 0,
        "slot": "8",
        "type": "t_array(t_address)dyn_storage"
      }
    ],
    "types": {
      "t_address": {
        "encoding": "inplace",
        "label": "address",
        "numberOfBytes": "20"
      },
      "t_array(t_address)dyn_storage": {
        "base": "t_address",
        "encoding": "dynamic_array",
        "label": "address[]",
        "numberOfBytes": "32"
      },
      "t_bytes32": {
        "encoding": "inplace",
        "label": "bytes32",
        "numberOfBytes": "32"
      },
      "t_contract(IERC20)1200": {
        "encoding": "inplace",
        "label": "contract IERC20",
        "numberOfBytes": "20"
      },
      "t_mapping(t_address,t_bytes32)": {
        "encoding": "mapping",
        "key": "t_address",
        "label": "mapping(address => bytes32)",
        "numberOfBytes": "32",
        "value": "t_bytes32"
      },
      "t_mapping(t_address,t_mapping(t_address,t_uint256))": {
        "encoding": "mapping",
        "key": "t_address",
        "label": "mapping(address => mapping(address => uint256))",
        "numberOfBytes": "32",
        "value": "t_mapping(t_address,t_uint256)"
      },
      "t_mapping(t_address,t_uint256)": {
        "encoding": "mapping",
        "key": "t_address",
        "label": "mapping(address => uint256)",
        "numberOfBytes": "32",
        "value": "t_uint256"
      },
      "t_string_storage": {
        "encoding": "bytes",
        "label": "string",
        "numberOfBytes": "32"
      },
      "t_uint256": {
        "encoding": "inplace",
        "label": "uint256",
        "numberOfBytes": "32"
      }
    }
  }
}